S015000061746D65676154696D657245782E73726563E2
S11300000C9434000C943E000C943E000C943E007E
S11300100C943E000C943E000C943E000C943E0064
S11300200C943E000C943E000C943E000C94400052
S11300300C943E000C943E000C943E000C943E0044
S11300400C943E000C943E000C943E000C943E0034
S11300500C943E000C943E000C943E000C943E0024
S11300600C943E000C943E0011241FBECFEFD8E048
S1130070DEBFCDBF0E9452000C946B000C940000B4
S11300801F920F920FB60F9211248F939F9395B1E5
S113009080E2892785B99F918F910F900FBE0F90B1
S11300A01F90189580E284B98FED85B91092850070
S11300B01092840088E09DE39093890080938800E7
S11300C080E4809380008DE08093810082E08093BF
S10D00D06F007894FFCFF894FFCF7F
S9030000FC
